:100000000C9434000C9451000C9451000C94510049
:100010000C9451000C9451000C9451000C9451001C
:100020000C9451000C9451000C9451000C9451000C
:100030000C9451000C9451000C9451000C945100FC
:100040000C9451000C9451000C9451000C945100EC
:100050000C9451000C9451000C9451000C945100DC
:100060000C9451000C94510011241FBECFEFD8E026
:10007000DEBFCDBF13E0A0E0B1E0E2E0F0E202C0FD
:1000800005900D92A030B107D9F723E0A0E0B3E0CE
:1000900001C01D92A334B207E1F70E94AE0B0C948D
:1000A000FF0F0C940000E82FF0E0E05DFC4F808132
:1000B0000895E82FF0E0E05DFC4F60830895E82F9D
:1000C000F0E0EE0FFF1FE05FFC4F8081918108950B
:1000D000E82FF0E0EE0FFF1FE85EFC4F808191817A
:1000E0000895E82FF0E0EE0FFF1FE05EFC4F8081E7
:1000F00091810895E82FF0E0EE0FFF1FE85DFC4FBF
:10010000808191810895E82FF0E0EE0FFF1FE0500D
:10011000FD4F808191810895E82FF0E0EE0FFF1FE1
:10012000E85FFC4F80819181089524B12C6224B94D
:100130002A9A25B1277D25B920E52CBD2A9820EFE4
:100140002EBD0DB407FEFDCF9EBD0DB407FEFDCF45
:100150008EBD0DB407FEFDCF6EBD0DB407FEFDCF05
:100160002A9A81E0089524B12C6224B92A9A25B1F3
:10017000277D25B920E52CBD2A982FE02EBD0DB492
:1001800007FEFDCF9EBD0DB407FEFDCF8EBD0DB4A5
:1001900007FEFDCF1EBC0DB407FEFDCF8EB52A9A1B
:1001A000089524B12C6224B92A9A25B1277D25B956
:1001B00020E52CBDFB019B01240F351F60EFE217EA
:1001C000F307A9F02A986EBD0DB407FEFDCF9EBDC2
:1001D0000DB407FEFDCF8EBD0DB407FEFDCF7191AE
:1001E0007EBD0DB407FEFDCF2A9A0196E8CFCA0165
:1001F000089524B12C6224B92A9A25B1277D25B906
:1002000020E52CBDFB019B01240F351F6FE0E21799
:10021000F307B1F02A986EBD0DB407FEFDCF9EBD69
:100220000DB407FEFDCF8EBD0DB407FEFDCF1EBC85
:100230000DB407FEFDCF7EB571932A9A0196E7CFE4
:10024000CA0108952F923F924F925F926F927F92D0
:100250008F929F92AF92BF92CF92DF92EF92FF92D6
:100260000F931F93CF93DF93CDB7DEB728970FB6C9
:10027000F894DEBF0FBECDBF282E362E84E291E06B
:100280000E94C60C622D8BE190E00E949500632DC8
:100290008AE190E00E94950080E090E49093090349
:1002A0008093080380E090E690930103809300031D
:1002B0008FE291E00E94C60C80E0882E83E0982EA9
:1002C00098E0A92E93E0B92E28E133E038872F83F8
:1002D00000E113E020E2C22E23E0D22E38E2E32E2A
:1002E00033E0F32E1A821982412C512C1C821B827E
:1002F000612C712C822D90E09E838D83232C312CD8
:10030000EF81F88511821082F801118210822B8111
:100310003C8121153042C4F58D819E81098002C047
:10032000959587950A94E2F7837099278230910515
:10033000B9F083309105E9F0019749F020E034E00D
:10034000EF81F885318320832FEF33E01AC020E05E
:1003500038E0EF81F885318320832FEF37E011C03B
:1003600020E030E1EF81F885318320832FEF3FE0FB
:1003700008C020E030E2EF81F885318320832FEF41
:100380003FE1F70131832083411430E253069CF5AD
:10039000C101098002C0959587950A94E2F78370A0
:1003A000992782309105A9F083309105D1F001970A
:1003B00041F020E034E0F801318320832FEF33E077
:1003C00017C020E038E0F801318320832FEF37E0B9
:1003D0000FC020E030E1F801318320832FEF3FE0B0
:1003E00007C020E030E2F801318320832FEF3FE1A6
:1003F000F60131832083EF81F88581919191F8870F
:10040000EF832B813C81280F391F3C832B83F8011C
:10041000219131918F01420E531E61147104D9F064
:10042000F501329760817181EF81F88534974081C1
:100430005181460F571FF50151834083F4013297D4
:1004400060817181F801349740815181460F571FB7
:10045000F40151834083F40160817181F2E08F0ED9
:10046000911CF50140815181F2E0AF0EB11C3F9328
:100470002F939F938F937F936F935F934F937F926D
:100480006F9228E531E03F932F930E94B00C8FEFDD
:10049000681A780AE981FA813296FA83E983F2E0F0
:1004A000CF0ED11C22E0E20EF11C0FB6F894DEBF95
:1004B0000FBECDBF94E06916710409F021CF2896D4
:1004C0000FB6F894DEBF0FBECDBFDF91CF911F9165
:1004D0000F91FF90EF90DF90CF90BF90AF909F90E3
:1004E0008F907F906F905F904F903F902F900895E6
:1004F000682F80E090E80C94950080E80C947802D6
:10050000CF93DF93EC01688181E090E00E94950039
:10051000698182E090E00E9495006A8183E090E02A
:100520000E9495006B8184E090E0DF91CF910C9464
:100530009500CF93DF93EC01688185E090E00E9405
:100540009500698186E090E00E9495006A8187E0CD
:1005500090E00E9495006B8188E090E0DF91CF9160
:100560000C949500CF93DF93EC01688189E090E0D3
:100570000E94950069818AE090E00E9495006A815E
:100580008BE090E00E9495006B818CE090E00E94EF
:1005900095006C818DE090E00E9495006D818EE069
:1005A00090E0DF91CF910C949500CF93DF93EC0115
:1005B00068818FE090E00E949500698180E190E081
:1005C0000E9495006A8181E190E00E9495006B8114
:1005D00082E190E0DF91CF910C94950085E190E06D
:1005E0000C94B300CF93C82F692F87E190E00E944D
:1005F00095006C2F88E190E0CF910C949500682FC6
:1006000089E190E00C949500682F86E190E00C94CD
:100610009500CF93DF93EC0181E090E00E94B3005E
:10062000888382E090E00E94B300898383E090E0B9
:100630000E94B3008A8384E090E00E94B3008B8321
:10064000DF91CF9108950C940903CF93DF93EC01D0
:1006500085E090E00E94B300888386E090E00E94ED
:10066000B300898387E090E00E94B3008A8388E02A
:1006700090E00E94B3008B83DF91CF910895CF93D8
:10068000DF93EC0189E090E00E94B30088838AE068
:1006900090E00E94B30089838BE090E00E94B30059
:1006A0008A838CE090E00E94B3008B838DE090E021
:1006B0000E94B3008C838EE090E00E94B3008D8393
:1006C000DF91CF910895CF93DF93EC018FE090E01D
:1006D0000E94B300888380E190E00E94B300898388
:1006E00081E190E00E94B3008A8382E190E00E9461
:1006F000B3008B83DF91CF9108950F931F93CF9316
:10070000DF938B01C82FD0E02496DC2FCC27CE01BD
:1007100006960E94B300F8018083CE0107960E94DE
:10072000B300F8018183CE0108960E94B300F8015E
:100730008283CE0109960E94B300F8018383CE0123
:100740000A960E94B300F8018483CE010B960E94A2
:10075000B300F8018583DF91CF911F910F91089528
:100760000F931F93CF93DF938B01C82FD0E0249674
:10077000DC2FCC27FB016081CE0106960E949500FC
:10078000F8016181CE0107960E949500F80162810F
:10079000CE0108960E949500F8016381CE0109966A
:1007A0000E949500F8016481CE010A960E9495008E
:1007B000F8016581CE010B96DF91CF911F910F91CA
:1007C0000C9495000F931F93CF93DF938B01C82F49
:1007D000D0E02496DC2FCC27CE010C960E94B300EB
:1007E000F8018083CE010D960E94B300F801818349
:1007F000CE010E960E94B300F8018283CE010F96BF
:100800000E94B300F8018383DF91CF911F910F9174
:1008100008950F931F93CF93DF938B01C82FD0E0E0
:100820002496DC2FCC27FB016081CE010C960E9420
:100830009500F8016181CE010D960E949500F801A6
:100840006281CE010E960E949500F8016381CE016F
:100850000F96DF91CF911F910F910C9495000F93FC
:100860001F93CF93DF938B01C82FD0E02496DC2F0A
:10087000CC27CE0140960E94B300F8018083CE01C0
:1008800041960E94B300F8018183DF91CF911F91BF
:100890000F9108950F931F93CF93DF938B01C82F70
:1008A000D0E02496DC2FCC27FB016081CE0140965E
:1008B0000E949500F8016181CE014196DF91CF91B0
:1008C0001F910F910C9495001F93CF93DF93162FD8
:1008D000672FC82FD0E02496DC2FCC27CE0142967C
:1008E0000E949500612FCE014396DF91CF911F9119
:1008F0000C94950090E0982F88278A5E9B4F0C946B
:10090000950090E0982F88278C5E9B4F0C94950063
:1009100090E0982F88278E5F9B4F0C94B30090E057
:10092000982F88278D5F9B4F0C94B300CF92DF9256
:10093000EF92FF920F931F93CF93DF93C82FD0E0D6
:100940002496DC2FCC277E0180E2E80EF11CA196D4
:1009500000E010E0C7010E94B300C82ED12CDC2CAF
:10096000CC24CE010E94B300C80ED11CC114D10406
:1009700061F0C7010E94B300082F10E0102F00277C
:10098000CE010E94B300080F111D0C151D0511F7B3
:10099000C801DF91CF911F910F91FF90EF90DF90F1
:1009A000CF900895CF92DF92EF92FF920F931F9313
:1009B000CF93DF93C82FD0E02496DC2FCC277E0185
:1009C00086E2E80EF11CA79600E010E0C7010E9445
:1009D000B300C82ED12CDC2CCC24CE010E94B30055
:1009E000C80ED11CC114D10461F0C7010E94B3002C
:1009F000082F10E0102F0027CE010E94B300080F2F
:100A0000111D0C151D0511F7C801DF91CF911F9124
:100A10000F91FF90EF90DF90CF900895CF92DF92EB
:100A2000EF92FF920F931F93CF93DF93E82FF0E0A5
:100A3000EE0FFF1FDF01A85DBC4F8D919C91DA0185
:100A4000A823B923EF01C85FDC4F08811981CD01CC
:100A5000800F911FE85EFC4FC081D181AD01420F34
:100A6000531FC417D50778F479016B01CA1BDB0B40
:100A7000AE010E94D100A7014C1B5D0BB6016C0FAB
:100A80007D1FC80101C0A901DF91CF911F910F9176
:100A9000FF90EF90DF90CF900C94D1009F92AF9297
:100AA000BF92CF92DF92EF92FF920F931F93CF935B
:100AB000DF93982E5B017A01C82FD0E02496DC2FBB
:100AC000CC276E0184E2C80ED11CC6010E94B3007F
:100AD000082F10E0102F0027A596CE010E94B3002A
:100AE000080F111D9701A801B501892D0E940E055F
:100AF0000E0D1F1D612FC6010E949500602FCE01B3
:100B0000DF91CF911F910F91FF90EF90DF90CF90E9
:100B1000BF90AF909F900C949500CF92DF92EF9290
:100B2000FF920F931F93CF93DF93DB01BA01A901CB
:100B3000E82FF0E0EE0FFF1FEF01C05EDC4F888171
:100B40009981A823B923EF01C050DD4F0881198195
:100B5000CD01800F911FE05FFC4FC081D1819D01CD
:100B6000240F351FC217D30770F47A016B01CA1B1B
:100B7000DB0BAE010E94F900A7014C1B5D0BB60117
:100B80006C0F7D1FC801DF91CF911F910F91FF90D6
:100B9000EF90DF90CF900C94F9009F92AF92BF92AC
:100BA000CF92DF92EF92FF920F931F93CF93DF9339
:100BB000982E5B017A01082F10E00C5F1F4F102F59
:100BC0000027680188E2C80ED11CC6010E94B3004C
:100BD000C82FD0E0DC2FCC27075D1F4FC8010E9433
:100BE000B300C80FD11DDF93CF9389E791E09F93A6
:100BF0008F930E94B00C9701A501BE01892D0E9420
:100C00008D05CE0DDF1D6D2FC6010E9495000F9042
:100C10000F900F900F906C2FC801DF91CF911F9113
:100C20000F91FF90EF90DF90CF90BF90AF909F908B
:100C30000C9495000F931F93CF93DF93C82F81E9F6
:100C400091E00E94C60CD0E02496DC2FCC278E01C8
:100C50000F5F1F4F60E1C8010E949500C8010E940C
:100C6000B3008111FBCF6FEFCE010296DF91CF91E0
:100C70001F910F910C949500CF92DF92EF92FF920B
:100C80000F931F93CF93DF93C82F062F6A01122F64
:100C90008AE991E00E94C60C8FEF800FEC2EF12CB8
:100CA0008530C8F58C2F0E941A06E7012496DC2FA8
:100CB000CC27602F612BCE010E949500CE010496B7
:100CC0008E010B5F1F4FC114D10429F06D2D0E94BE
:100CD00095006C2D0FC020913403309135032F5FA8
:100CE0003F4F3093350320933403632F0E949500C8
:100CF00060913403C8010E9495008E010F5F1F4F61
:100D000061E0C8010E949500C8010E94B3008111F2
:100D1000FBCF11E001C010E0E7012496DC2FCC27C7
:100D2000CE010E94B300082FCE0103960E94B300AB
:100D30001F920F931F928F9384EA91E09F938F935A
:100D40000E94B00C0F900F900F900F900F900F908B
:100D5000812FDF91CF911F910F91FF90EF90DF9046
:100D6000CF900895CF93DF93C82F85EC91E00E9438
:100D7000C60CD0E02496DC2FCC27CE0103960E942F
:100D8000B300833161F4219662E0CE010E949500A8
:100D9000CE010E94B3008111FBCF81E005C08FEC32
:100DA00091E00E94C60C80E0DF91CF910895EF9210
:100DB000FF920F931F93CF93DF93C82F8B017A017C
:100DC00089EE91E00E94C60CF80160816F3F51F4FA
:100DD00081818F3F99F482818F3F81F483818F3F9E
:100DE00069F40FC061110AC0F8018181811106C048
:100DF0008281811103C08381882319F0E114F104F9
:100E000031F48FEC91E00E94C60C80E02FC0D0E05E
:100E10002496DC2FCC27CE010C960E949500F80179
:100E20006181CE010D960E949500F8016281CE018C
:100E30000E960E949500F8016381CE010F960E94E4
:100E400095006F2DCE0140960E9495006E2DCE012B
:100E500041960E949500219664E0CE010E94950083
:100E6000CE010E94B3008111FBCF81E0DF91CF91D1
:100E70001F910F91FF90EF900895CF93DF93C82FAC
:100E800086EE91E00E94C60CD0E0DC2FCC27CF5F2D
:100E9000DB4F68E0CE010E949500CE010E94B300B6
:100EA0008111FBCFDF91CF9108955F926F927F9276
:100EB0008F929F92AF92BF92CF92DF92EF92FF926A
:100EC0000F931F93CF93DF93582E3B018A0189ED37
:100ED00092E00E94C60C852D0E9468008017910741
:100EE00020F4852D0E9468008C01C52CD12CE601D0
:100EF0002496DC2FCC274E0183E0880E911C94EFC2
:100F0000A92E91E0B92E852D0E9496047C01C40182
:100F10000E94B300873111F08C3191F4FF92EF926F
:100F2000DF92CF92BF92AF920E94B00C0F900F90C1
:100F30000F900F900F900F90E016F10620F302C073
:100F400000E010E0A801B301852D0E944E057E014E
:100F50008FEFE81AF80A60E2C7010E949500C70106
:100F60000E94B3008111FBCF2296CE010E94B300F4
:100F700084FD0FC0C4010E94B3008111F6CF8CE143
:100F800092E00E94C60C852D0E941A0680E090E037
:100F900005C060E1CE010E949500C801DF91CF91AC
:100FA0001F910F91FF90EF90DF90CF90BF90AF9087
:100FB0009F908F907F906F905F900895EF92FF9237
:100FC0000F931F93CF93DF93C82F7B018A018AE28F
:100FD00092E00E94C60C0115110599F0A801B70115
:100FE0008C2F0E94CD05D0E0DC2FCC27CF5FDB4FCC
:100FF00060E4CE010E949500CE010E94B3008111F1
:10100000FBCFC801DF91CF911F910F91FF90EF901F
:1010100008959F92AF92BF92CF92DF92EF92FF928C
:101020000F931F93CF93DF93982E5B01EA01790111
:1010300082E392E00E94C60C892D0E9468008C1702
:101040009D0728F4892D0E9468006C0101C06E0183
:10105000F7016081611109C08181811106C082811F
:10106000811103C08381882331F00115110519F026
:10107000C114D10429F5DF93CF931F930F93F70188
:1010800083811F928F9382811F928F9381811F9200
:101090008F931F926F931F929F928CE392E09F9386
:1010A0008F930E94B00C8FEC91E00E94C60C8DB71C
:1010B0009EB740960FB6F8949EBF0FBE8DBF49C035
:1010C000C92DD0E02496DC2FCC27CE010C960E94AF
:1010D0009500F7016181CE010D960E949500F70100
:1010E0006281CE010E960E949500F7016381CE01C8
:1010F0000F960E949500612FCE0140960E949500A8
:10110000602FCE0141960E949500A601B501892D60
:101110000E944E058E010F5F1F4F60E2C8010E94C2
:101120009500C8010E94B3008111FBCF2296CE0129
:101130000E94B30084FD10C0CE010E94B30083FF63
:10114000F6CF83EF92E00E94C60C68E1CE010E94C8
:10115000950080E090E005C060E1CE010E9495001E
:10116000C601DF91CF911F910F91FF90EF90DF901B
:10117000CF90BF90AF909F9008952F923F924F9243
:101180005F927F928F929F92AF92BF92CF92DF92A7
:10119000EF92FF920F931F93CF93DF93CDB7DEB7FC
:1011A0002A970FB6F894DEBF0FBECDBF782E4B0145
:1011B0006A0179011A87098784E692E00E94C60CC9
:1011C000CD2809F40FC1472C512C84E0480E511C46
:1011D000542C4424520198E2A90EB11CC5010E946E
:1011E000B300082F10E0102F00276201E9E2CE0EB5
:1011F000D11CC6010E94B300080F111D1F930F934D
:1012000089E791E09F938F930E94B00CC2010E94E6
:10121000B3000F900F900F900F908770833009F4F8
:1012200060C0843009F4A7C0823009F0CCC028E047
:1012300030E0AE014F5F5F4FB801872D0E948D05F2
:101240001801F8E02F0E311C8981F70180838A8113
:1012500081838B8182838C8183838D8190E0982F21
:1012600088272E81820F911DE985FA8591838083DD
:101270000F8110E0102F00278885080F111D80E7CF
:1012800092E00E94C60CE985FA8581818F93808166
:101290008F9381E892E09F938F930E94B00CF701A7
:1012A00083811F928F9382811F928F9381811F92DE
:1012B0008F9380811F928F9384E992E09F938F9305
:1012C0000E94B00C9801A401B101872D0E948D05E8
:1012D0007101E00EF11E6F2DC5010E9495006E2D6B
:1012E00041C026E030E0AE014F5F5F4FB801872D6F
:1012F0000E948D05180196E0290E311C8981F701A5
:1013000080838A8181838B8182838C8183830D8119
:1013100010E0102F00278E81080F111D8EEA92E039
:101320000E94C60CF70183811F928F9382811F92C6
:101330008F9381811F928F9380811F928F9384E975
:1013400092E09F938F930E94B00C9801A401B10189
:10135000872D0E948D05200E311E632DC5010E9430
:101360009500622DC6010E9495000FB6F894DEBF6D
:101370000FBECDBF2AC022E030E0AE014F5F5F4F0D
:10138000B801872D0E948D05780192E0E90EF11CCD
:10139000098110E0902F88270A8110E0025011097E
:1013A000080F191F9801A401B701872D0E948D0510
:1013B000E00EF11E6F2DC5010E9495006E2DC60135
:1013C0000E94950002C000E010E0EFEF4E1A5E0AA6
:1013D00060E4C2010E949500C2010E94B300811125
:1013E000FBCF02C000E010E082EC92E00E94C60C4D
:1013F000C8012A960FB6F894DEBF0FBECDBFDF91AD
:10140000CF911F910F91FF90EF90DF90CF90BF9001
:10141000AF909F908F907F905F904F903F902F90D4
:101420000895CF92DF92FF920F931F93CF93DF9394
:10143000F82E6B01EA0185ED92E00E94C60C8F2D1B
:101440000E9468008C179D0728F48F2D0E94680069
:101450008C0101C08E010115110589F41F921F92A4
:10146000DF93CF9381EE92E09F938F930E94B00C15
:101470000F900F900F900F900F900F9030C0A80119
:10148000B6018F2D0E944E05CF2DD0E02496DC2F83
:10149000CC276E018FEFC81AD80A60E2C6010E94FD
:1014A0009500C6010E94B3008111FBCF6E0182E05E
:1014B000C80ED11C2396C6010E94B30084FD12C041
:1014C000CE010E94B300C6010E94B30083FFF3CF98
:1014D0008FEE92E00E94C60C8F2D0E941A0680E0CB
:1014E00090E005C060E1C6010E949500C801DF914F
:1014F000CF911F910F91FF90DF90CF90089584B10D
:101500008F6084B98AB183788AB98BB18C608BB9CA
:1015100008959C012850310981E090E001C0880FB6
:101520002A95EAF795B1611103C08095892301C01E
:10153000892B85B908959C01225031092530310548
:1015400080F449B121E030E0B90102C0660F771F95
:101550008A95E2F7CB01942F982381E019F480E07B
:1015600008958FEF08958093BB0084E88093BC00BA
:101570008091BC0087FFFCCF08951092B9008CE0E9
:101580008093B80084E08093BC000895CF9394EAE0
:101590009093BC009091BC0097FFFCCF9091B90054
:1015A000987F983011F080E015C0C62F880F0E94F8
:1015B000B30A8091B900887F8831A9F78C2F0E94E7
:1015C000B30A8091B900887F883269F784E98093F3
:1015D000BC0081E0CF910895CF93DF9394EA90937C
:1015E000BC009091BC0097FFFCCF9091B900987F10
:1015F000983011F080E01EC0C42FD62F880F0E94B3
:10160000B30A8091B900887F8831A1F78D2F0E949D
:10161000B30A8091B900887F883261F78C2F0E94CD
:10162000B30A8091B900887F883221F784E98093DA
:10163000BC0081E0DF91CF910895CF92DF92EF92CD
:10164000FF920F931F93CF93DF936C017B018A016D
:10165000E9010E947D0265E585E50E942201C6013F
:101660000E94B202C7010E94D502C8010E948002F6
:10167000CE01DF91CF911F910F91FF90EF90DF90FE
:10168000CF900C949902EAE7F0E090819760908304
:10169000ACE7B0E09C9190669C939C91907F892BE5
:1016A0008C93808180688083089580917A00806423
:1016B00080937A0080917A0086FDFCCF809179003A
:1016C00090E00895092E000CAA0BBB0B9C01AD0104
:1016D00084E0220F331F441F551F8A95D1F760E025
:1016E00074E284EF90E00E94320C21503109309373
:1016F000C5002093C40088E18093C10086E08093F8
:10170000C200E0ECF0E080818D7F808308959091AD
:10171000C00095FFFCCF8093C6000895CF93C82FDB
:101720008A3019F48DE00E94870B8C2F0E94870B62
:1017300080E090E0CF9108958091C00087FFFCCFBA
:101740008091C600089580E895E20E94620B80E0D7
:1017500091E09093400380933F030895CF93DF93EC
:10176000CDB7DEB7A2970FB6F894DEBF0FBECDBFE0
:1017700080E00E94430B0E947F0A60E088E090E0D6
:101780000E94890A86E0E2E1F1E0DE011196019013
:101790000D928A95E1F78091180190911901A0911D
:1017A0001A01B0911B018D8F9E8FAF8FB8A38091CE
:1017B0001C0190911D01A0911E01B0911F01898F04
:1017C0009A8FAB8FBC8F8091200190912101A091C5
:1017D0002201B09123018D8B9E8BAF8BB88F9E0120
:1017E000275E3F4FAE014B5E5F4FBE01635E7F4F92
:1017F000CE0101960E941D0B82ED94E09AA389A36D
:1018000020E042ED54E062E083E00E943C0685E087
:10181000D82E98E7E92E27E3F22E8E010F5D1F4F99
:101820009E012F5E3F4F45E050E0BE01645F7F4F59
:1018300083E00E94BD08892B81F30E94A00C8F8356
:101840009887D986EA86FB8609A11AA19E012F5E98
:101850003F4F45E050E0BE01695F7F4F83E00E944B
:101860000908DBCFA1E21A2EAA1BBB1BFD010DC08C
:10187000AA1FBB1FEE1FFF1FA217B307E407F50740
:1018800020F0A21BB30BE40BF50B661F771F881F1C
:10189000991F1A9469F760957095809590959B01B2
:1018A000AC01BD01CF0108958F929F92AF92BF927C
:1018B000CF92DF92EF92FF92CF93DF93EC0168819A
:1018C00079818A819B81611571058105910521F4DA
:1018D00064E279ED8BE597E02DE133EF41E050E0F4
:1018E0000E94870F49015A019B01AC01A7EAB1E4AC
:1018F0000E94A60F6B017C01ACEEB4EFA501940130
:101900000E94B40FDC01CB018C0D9D1DAE1DBF1DCF
:10191000B7FF03C00197A109B04888839983AA83C0
:10192000BB839F77DF91CF91FF90EF90DF90CF90B7
:10193000BF90AF909F908F9008950E94540C08958F
:101940008EE091E00E94540C0895A0E0B0E08093F6
:101950000E0190930F01A0931001B093110108950F
:10196000A0E0B0E0E6EBFCE00C94C90FAE014B5FE9
:101970005F4FFA0161917191AF0180913F039091A6
:1019800040030E94F60CE2E00C94E50F0F931F93C6
:10199000CF93DF93E0913F03F0914003238121FF38
:1019A0001BC08C01D0E0C0E0F80181918F016091F3
:1019B0003F0370914003DB011896ED91FC9119975C
:1019C000882331F00995892B79F3DFEFCFEFECCF46
:1019D0008AE00995892B19F08FEF9FEF02C08D2FB8
:1019E0009C2FDF91CF911F910F910895ABE0B0E054
:1019F000ECEFFCE00C94B90F6C017B018A01FC0157
:101A000017821682838181FFCCC1CE0101963C01F1
:101A1000F6019381F70193FD859193FF81917F01F9
:101A2000882309F4BAC1853239F493FD859193FF77
:101A300081917F01853229F4B60190E00E94ED0E7C
:101A4000E7CF912C212C312CFFE1F315D8F08B320C
:101A500079F038F4803279F08332A1F4232D2061BB
:101A60001DC08D3261F0803369F4232D216016C0D2
:101A7000832D8260382EE32DE4603E2E2AC0F32DA4
:101A8000F8601DC037FC2DC020ED280F2A3040F033
:101A90008E32B9F436FC81C1232D2064322E19C058
:101AA00036FE06C08AE0989E200D1124922E11C0A9
:101AB000EAE02E9E200D1124222EF32DF0623F2EFF
:101AC00008C08C3621F4832D8068382E02C08836F9
:101AD00041F4F70193FD859193FF81917F0181117D
:101AE000B3CF982F9F7D9554933028F40C5F1F4FF0
:101AF0009FE399830DC0833631F0833771F08335CE
:101B000009F059C021C0F801808189830E5F1F4F01
:101B100088248394912C530113C02801F2E04F0EC6
:101B2000511CF801A080B18036FE03C0692D70E021
:101B300002C06FEF7FEFC5010E94E20E4C018201EF
:101B4000F32DFF773F2E16C0280122E0420E511CD4
:101B5000F801A080B18036FE03C0692D70E002C09C
:101B60006FEF7FEFC5010E94D70E4C01F32DF06897
:101B70003F2E820133FC1BC0822D90E0881699060F
:101B8000B0F4B60180E290E00E94ED0E2A94F4CF0A
:101B9000F50137FC859137FE81915F01B60190E038
:101BA0000E94ED0E21102A9421E0821A91088114DE
:101BB000910471F7E8C0843611F0893641F5F801D7
:101BC00037FE07C060817181828193810C5F1F4F56
:101BD00008C060817181072E000C880B990B0E5F85
:101BE0001F4FF32DFF763F2E97FF09C090958095EC
:101BF000709561957F4F8F4F9F4FF0683F2E2AE081
:101C000030E0A3010E94290F882E861845C0853731
:101C100031F4232D2F7EB22E2AE030E025C0932D03
:101C2000997FB92E8F36C1F018F4883579F0B5C098
:101C3000803719F0883721F0B0C0E92FE061BE2E5F
:101C4000B4FE0DC0FB2DF460BF2E09C034FE0AC0E7
:101C5000292F2660B22E06C028E030E005C020E122
:101C600030E002C020E132E0F801B7FE07C0608139
:101C70007181828193810C5F1F4F06C060817181E9
:101C800080E090E00E5F1F4FA3010E94290F882E75
:101C90008618FB2DFF773F2E36FE0DC0232D2E7F9D
:101CA000A22E891458F434FE0BC032FC09C0832DD7
:101CB0008E7EA82E05C0B82CA32C03C0B82C01C062
:101CC000B92CA4FE0FC0FE01E80DF11D8081803308
:101CD00021F49A2D997EA92E09C0A2FE06C0B394C4
:101CE000B39404C08A2D867809F0B394A3FC11C084
:101CF000A0FE06C0B21488F4280C922C9B180EC0CB
:101D0000B21460F4B60180E290E00E94ED0EB3944C
:101D1000F7CFB21418F42B1802C0982C212CA4FE73
:101D200010C0B60180E390E00E94ED0EA2FE17C045
:101D3000A1FC03C088E790E002C088E590E0B6010E
:101D40000CC08A2D867859F0A1FE02C08BE201C03A
:101D500080E2A7FC8DE2B60190E00E94ED0E8914AE
:101D600038F4B60180E390E00E94ED0E9A94F7CF2C
:101D70008A94F301E80DF11D8081B60190E00E9484
:101D8000ED0E8110F5CF222009F442CEB60180E29B
:101D900090E00E94ED0E2A94F6CFF601868197819D
:101DA00002C08FEF9FEF2B96E2E10C94D50FFC0160
:101DB0000590615070400110D8F7809590958E0F76
:101DC0009F1F0895FC016150704001900110D8F7E9
:101DD000809590958E0F9F1F08950F931F93CF931B
:101DE000DF93FB01238121FD03C08FEF9FEF2CC008
:101DF00022FF16C04681578124813581421753073F
:101E000044F4A081B1819D012F5F3F4F3183208336
:101E10008C93268137812F5F3F4F3783268314C0F1
:101E20008B01EC01FB010084F185E02D0995892BE4
:101E3000E1F6D80116968D919C9117970196179609
:101E40009C938E931697CE01DF91CF911F910F91A6
:101E50000895FA01AA27283051F1203181F1E89440
:101E60006F936E7F6E5F7F4F8F4F9F4FAF4FB1E08D
:101E70003ED0B4E03CD0670F781F891F9A1FA11D88
:101E8000680F791F8A1F911DA11D6A0F711D811D89
:101E9000911DA11D20D009F468943F912AE0269F4E
:101EA00011243019305D3193DEF6CF010895462FAD
:101EB0004770405D4193B3E00FD0C9F7F6CF462F8E
:101EC0004F70405D4A3318F0495D31FD40524193F7
:101ED00002D0A9F7EACFB4E0A695979587957795B4
:101EE0006795BA95C9F700976105710508959B013B
:101EF000AC010A2E06945795479537952795BA95C4
:101F0000C9F7620F731F841F951FA01D0895052E2A
:101F100097FB1EF400940E949E0F57FD07D00E946D
:101F2000320C07FC03D04EF40C949E0F5095409554
:101F3000309521953F4F4F4F5F4F08959095809575
:101F4000709561957F4F8F4F9F4F08950E94F00FBE
:101F5000A59F900DB49F900DA49F800D911D1124FD
:101F60000895B7FF0C94A60F0E94A60F821B930B37
:101F700008952F923F924F925F926F927F928F922D
:101F80009F92AF92BF92CF92DF92EF92FF920F9308
:101F90001F93CF93DF93CDB7DEB7CA1BDB0B0FB612
:101FA000F894DEBF0FBECDBF09942A8839884888CF
:101FB0005F846E847D848C849B84AA84B984C88465
:101FC000DF80EE80FD800C811B81AA81B981CE0F5C
:101FD000D11D0FB6F894DEBF0FBECDBFED01089541
:101FE000A29FB001B39FC001A39F700D811D11245A
:101FF000911DB29F700D811D1124911D0895F894BB
:02200000FFCF10
:1020020000000002000000008E0B00000000010032
:102012000000D0ADBE000000AC1A9137FFFFFF00F8
:10202200AC1A9164737973696E697428290D00433F
:1020320068616E6E656C203A2053454E44204D45D2
:102042004D2053495A45203A2052454356204D458A
:102052004D2053495A450D002564203A20252E343F
:1020620078203A20252E3478203A20252E347820E4
:102072003A20252E34780D0A004953525F52583ABD
:102082002072645F707472203A20252E34780D0A13
:1020920000636C6F736528290D00736F636B657441
:1020A20028290D00536E5F5352203D20252E327891
:1020B200202C2050726F746F636F6C203D20252E90
:1020C20032780D0A006C697374656E28290D00461A
:1020D20061696C5B696E76616C69642069702C70F1
:1020E2006F72745D0D00646973636F6E6E65637405
:1020F20028290D00736F636B657420256420667256
:10210200656573697A652825642920656D7074791F
:10211200206F72206572726F720D0A00534F434B2B
:102122005F434C4F5345442E0D0072656376282958
:102132000D0073656E64746F28290D0025642046B6
:1021420061696C5B252E32782E252E32782E252E53
:1021520032782E252E32782C20252E642C202564D0
:102162005D0D0A007265637666726F6D28290D0037
:10217200554450206D736720617272697665640DF3
:1021820000736F7572636520506F7274203A202558
:10219200640D0A00736F75726365204950203A20FE
:1021A20025642E25642E25642E25640D0A004950CF
:1021B20020524157206D736720617272697665649F
:1021C2000D007265637666726F6D282920656E64F4
:1021D200202E2E0D0069676D7073656E6428290DBF
:1021E200002564204661696C5B25645D0D0A006907
:1021F200676D7073656E64206661696C2E0D0000F8
:00000001FF
